{"abi":[{"type":"function","name":"verifyProof","inputs":[{"name":"vk","type":"address","internalType":"address"},{"name":"proofs","type":"bytes","internalType":"bytes"},{"name":"challenges","type":"uint256[]","internalType":"uint256[]"},{"name":"values","type":"uint256[]","internalType":"uint256[]"}],"outputs":[{"name":"","type":"bool","internalType":"bool"}],"stateMutability":"view"}],"bytecode":{"object":"0x608060405234801561001057600080fd5b50610431806100206000396000f3fe608060405234801561001057600080fd5b506004361061002b5760003560e01c806347f6b5aa14610030575b600080fd5b61004361003e366004610314565b610057565b604051901515815260200160405180910390f35b6000610135565b6020820135838110833585811084169190911691856003818085800985090886828309148316925050509392505050565b8160c0528260e05260006040608080608060065afa9091169392505050565b8160c0526000604060806060608060075afa90911692915050565b8160005282602052610280516040526102a0516060526102c0516080526102e05160a0528360c0528460e0526103005161010052610320516101205261034051610140526103605161016052600060206000610180600060085afa600051921690911695945050505050565b7f30644e72e131a029b85045b68181585d97816a916871ca8d3c208c16d87cfd477f30644e72e131a029b85045b68181585d2833e84879b9709143e1f593f0000001600160c06101606102408d3c60843560808106600014821691508161019b57600080fd5b6020816084010180356004811484169350836101b657600080fd5b6020820135610300526040820135610320526060820135610340526080820135610360526020808202830101915050803560208102830460041484169350836101fe57600080fd5b60005b818110156102ba57610240516080526102605160a052602081810284010135860360c08190526040820261023582886100ae565b87169650806002870460a40101915061024f89838961005e565b96506020820135913561026383828a61008f565b9750508661027057600080fd5b6080516102005260a0516102205260a401905061028e88828861005e565b95508035602082013591506102ac828261022051610200518b6100c9565b909616955050600101610201565b505050508060005260206000f35b60008083601f8401126102da57600080fd5b50813567ffffffffffffffff8111156102f257600080fd5b6020830191508360208260051b850101111561030d57600080fd5b9250929050565b60008060008060008060006080888a03121561032f57600080fd5b87356001600160a01b038116811461034657600080fd5b9650602088013567ffffffffffffffff8082111561036357600080fd5b818a0191508a601f83011261037757600080fd5b81358181111561038657600080fd5b8b602082850101111561039857600080fd5b6020830198508097505060408a01359150808211156103b657600080fd5b6103c28b838c016102c8565b909650945060608a01359150808211156103db57600080fd5b506103e88a828b016102c8565b989b979a5095985093969295929350505056fea2646970667358221220f7463587c2fad2925a69e3461953c993c8d36cd239d9464a8684d04fe34a825364736f6c63430008150033","linkReferences":{}},"methodIdentifiers":{"verifyProof(address,bytes,uint256[],uint256[])":"47f6b5aa"},"id":27}