{"abi":[{"type":"function","name":"verifyProof","inputs":[{"name":"vk","type":"address","internalType":"address"},{"name":"proof","type":"bytes","internalType":"bytes"},{"name":"instances","type":"uint256[]","internalType":"uint256[]"}],"outputs":[{"name":"","type":"bool","internalType":"bool"}],"stateMutability":"view"}],"bytecode":{"object":"0x608060405234801561001057600080fd5b50612188806100206000396000f3fe608060405234801561001057600080fd5b506004361061002b5760003560e01c8063af83a18d14610030575b600080fd5b61004361003e366004612095565b610057565b604051901515815260200160405180910390f35b6000610263565b60008060008435602086013588821086169450888110851694508860038a8b858609850908898283099289526020890191909152149290921696604094850196509390940193505050565b60016020536021600090812092830682529190915260200190565b6000838351602085015b602087038110156100f0578781518309808452602093840193909250016100ce565b8781518309915060208352602080840152602060408401528160608401526002880360808401528760a084015260208360c08560055afa851693508251915085602081016020850394505b828110156101635789855185098a84518609908452601f19958601959094509092019161013b565b8981518509945089825185099490915292909252509095945050505050565b81604052826060526000604060006080600060065afa9091169392505050565b816040526000604060006060600060075afa90911692915050565b8160c0528260e05260006040608080608060065afa9091169392505050565b8160c0526000604060806060608060075afa90911692915050565b8160005282602052610b4051604052610b6051606052610b8051608052610ba05160a0528360c0528460e052610bc05161010052610be05161012052610c005161014052610c205161016052600060206000610180600060085afa600051921690911695945050505050565b7f30644e72e131a029b85045b68181585d97816a916871ca8d3c208c16d87cfd477f30644e72e131a029b85045b68181585d2833e84879b9709143e1f593f0000001600161056060006109a08b3c6064356115001481169050610a6051611584358114821691506109a05160005260206115a48260200281015b8082101561030057813580845286119490941693602092830192909101906102dd565b5060849250610f0090506103445b8084101561032d576103228784868861005e565b94509450945061030e565b5060009182208581068252909152602090810161040083015b808410156103655761035a8784868861005e565b945094509450610346565b5060009182208581068252909152602090810161038285826100a9565b905061038083015b808410156103a95761039e8784868861005e565b94509450945061038a565b5060009182208581068252909152602090810160c083015b808410156103e0576103d58784868861005e565b9450945094506103c1565b5060009182208581068252909152602090810161098083015b8084101561041c57833580845286119490941693602093840193909201916103f9565b5060009182208581068252909152602090810161043985826100a9565b90506104478683858761005e565b600090812088810690945292909252935091506020905061046a8582848661005e565b9250925092505050610a80511561053757610ac051610ae0516020610aa051026115a4016020830260028102600382028335838501358386013583870135896020028801895b818a10156104ee5760208a0199508935811b86019550888a0135811b85019450878a0135811b84019350868a0135811b830192508a810190506104b0565b50508c60038e8f8788098709088d848509148b169a508c60038e8f8586098509088d828309148b169a508361100052826110205281611040528061106052505050505050505050505b8061054157600080fd5b6109c0519250610f80518060005b858110156105655784828309915060010161054f565b50610a005194506110806006610a6051016020028101610a6051610587576020015b610a40515b818310156105ad57868188038608835286888209905060208301925061058c565b508560018703840893508381526105cb8660208301611080886100c4565b94506110809150856109e05185099350610a40515b8183101561060357868782855109860983528688820990506020830192506105e0565b506110a05196506110c0935061114091505b8184101561062f5785845188089650602084019350610615565b600091506115a4610a605160200281015b80821015610664578788833588510985089350602082019150602086019550610640565b505051611080805161114051949091526110a0919091526110c0526110e0959095526111008190526111209490945250610f60516000937f09226b6e22c6f0ca64ec26aad4c86e715b5f898e5e963f25870e56bbe533e9a291908480610e4435830986038208955050610fc435848082810381848009086110c051099050848186848909089550508384610e84358603610ea435086111005109848186848909089550508384610ee4358603610f0435086111005109848186848909089550508384610f44358603610f6435086111005109848186848909089550508384610fa4358603610fc43508611100510984818684890908955050610f4051610f2051610e6435610e44358788858a8b610d04358809610cc4350808830991508788858a8b610d243588096111205108088309915087610f805184096000528788858a600051610cc4350808820990508786600051096000528788858a6000516111205108088209905087866000510960005287818903830893505050508485866110e0516110c05108830986038208905084818684890908955050610f4051610f2051610ec435610ea4358788858a8b610d44358809610b84350808830991508788858a8b610d64358809610ba4350808830991508788858a600051610b84350808820990508786600051096000528788858a600051610ba43508088209905087866000510960005287818903830893505050508485866110e0516110c05108830986038208905084818684890908955050610f4051610f2051610f2435610f04358788858a8b610d84358809610bc4350808830991508788858a8b610da4358809610be4350808830991508788858a600051610bc4350808820990508786600051096000528788858a600051610be43508088209905087866000510960005287818903830893505050508485866110e0516110c05108830986038208905084818684890908955050610f4051610f2051610f8435610f64358788858a8b610dc4358809610c24350808830991508788858a8b610de4358809610c44350808830991508788858a600051610c24350808820990508786600051096000528788858a600051610c443508088209905087866000510960005287818903830893505050508485866110e0516110c05108830986038208905084818684890908955050610f4051610f2051610fe435610fc4358788858a8b610e04358809610c64350808830991508788858a8b610e24358809610c84350808830991508788858a600051610c64350808820990508786600051096000528788858a600051610c843508088209905087818903830893505050508485866110e0516110c05108830986038208905084818684890908955050611100518485611004358703830982089050848186848909089550506110c051848561100435870387611004356110043509088209905084818684890908955060009050610c0435610b8435620100008781830988039150879050818308610f2051610f4051919450610cc435935091508780808361108435088a85611044350809611024350988898a8487088b86890809611004350994508889868b0383088a8b6110c0516110e051088c0360010809945050505050848186848909089550508384611084358603611044350861110051098481868489090895505083848561106435870361104435088661108435880361104435080985866110c0516110e05108870360010809848186848909089550506111005184856110a4358703830982089050848186848909089550506110c05184856110a4358703876110a4356110a43509088209905084818684890908955060009050610b8435610ba435620100008781830988039150879050818308610f2051610f4051919450610cc435935091508780808361112435088a856110e43508096110c4350988898a8487088b868908096110a4350994508889868b0383088a8b6110c0516110e051088c03600108099450505050508481868489090895505083846111243586036110e435086111005109848186848909089550508384856111043587036110e43508866111243588036110e435080985866110c0516110e0510887036001080984818684890908955050611100518485611144358703830982089050848186848909089550506110c051848561114435870387611144356111443509088209905084818684890908955060009050610ba435610bc435620100008781830988039150879050818308610f2051610f4051919450610cc43593509150878080836111c435088a85611184350809611164350988898a8487088b86890809611144350994508889868b0383088a8b6110c0516110e051088c03600108099450505050508481868489090895505083846111c435860361118435086111005109848186848909089550508384856111a43587036111843508866111c435880361118435080985866110c0516110e05108870360010809848186848909089550506111005184856111e4358703830982089050848186848909089550506110c05184856111e4358703876111e4356111e43509088209905084818684890908955060009050610bc435610be435620100008781830988039150879050818308610f2051610f4051919450610cc435935091508780808361126435088a85611224350809611204350988898a8487088b868908096111e4350994508889868b0383088a8b6110c0516110e051088c0360010809945050505050848186848909089550508384611264358603611224350861110051098481868489090895505083848561124435870361122435088661126435880361122435080985866110c0516110e0510887036001080984818684890908955050611100518485611284358703830982089050848186848909089550506110c051848561128435870387611284356112843509088209905084818684890908955060009050610ca435610c2435620100008781830988039150879050818308610f2051610f4051919450610cc435935091508780808361130435088a856112c43508096112a4350988898a8487088b86890809611284350994508889868b0383088a8b6110c0516110e051088c03600108099450505050508481868489090895505083846113043586036112c435086111005109848186848909089550508384856112e43587036112c43508866113043588036112c435080985866110c0516110e0510887036001080984818684890908955050611100518485611324358703830982089050848186848909089550506110c051848561132435870387611324356113243509088209905084818684890908955060009050610c2435610c4435620100008781830988039150879050818308610f2051610f4051919450610cc43593509150878080836113a435088a85611364350809611344350988898a8487088b86890809611324350994508889868b0383088a8b6110c0516110e051088c03600108099450505050508481868489090895505083846113a435860361136435086111005109848186848909089550508384856113843587036113643508866113a435880361136435080985866110c0516110e05108870360010809848186848909089550506111005184856113c4358703830982089050848186848909089550506110c05184856113c4358703876113c4356113c43509088209905084818684890908955060009050610c4435610c6435620100008781830988039150879050818308610f2051610f4051919450610cc435935091508780808361144435088a856114043508096113e4350988898a8487088b868908096113c4350994508889868b0383088a8b6110c0516110e051088c0360010809945050505050848186848909089550508384611444358603611404350861110051098481868489090895505083848561142435870361140435088661144435880361140435080985866110c0516110e0510887036001080984818684890908955050611100518485611464358703830982089050848186848909089550506110c051848561146435870387611464356114643509088209905084818684890908955060009050610c6435610c8435620100008781830988039150879050818308610f2051610f4051919450610cc43593509150878080836114e435088a856114a4350809611484350988898a8487088b86890809611464350994508889868b0383088a8b6110c0516110e051088c03600108099450505050508481868489090895505083846114e43586036114a435086111005109848186848909089550508384856114c43587036114a43508866114e43588036114a435080985866110c0516110e05108870360010809848186848909089550505050816110a051840961114052610b4435600052610b6435602052611080519250610b04610a845b818110156113415761132285846101a2565b92506113346020830135833585610182565b9250604082039150611310565b50506000516111605260205161118052610f80519250610a0051610a205183828609915081610360528461034052838186099150816103205283818309915083818309915083818309915083818309915083818309915050806103005250610fe05192506103806104006103005b818310156113cc57848151860387088352602092830192016113af565b50506103c0516104005250610380516103a051909350829084099250816103e05184096104208190526000526103a0516104408190526103805193508290840961046052610380516103e05190935082908409610480526103c0516001935082908409602052610300516103405161036051919450906000848381038708905084858387038808820990508461038051820990508060405284868603840890508485838703850882099050846103c051820990508060605284868603830890508485848703840882099050846103e051820960805250506103405161036051909450905060008382810386089050836103c051820990508060a0528385850383089050836103e051820960c0525050610320516103405190935060008382810386089050836103a051820990508060e0528385850383089050836103c051820961010052506115229050826101206000846100c4565b9050600051925082610420526104406104a05b8082101561154f5783858351098252602082019150611535565b50506020519250610fa05160008384610ce435870982089050838282099050838461114051870982089050610e24610ce45b818110156115a15785868335890987868609089250602082039150611581565b50508382820990508384610cc43587098208905083828209905083846114e43587098208905083828209905083846114443587098208905083828209905083846113a43587098208905083828209905083846113043587098208905083828209905083846112643587098208905083828209905083846111c435870982089050838282099050838461112435870982089050838282099050838461108435870982089050610ca4610b645b8181101561166c578586833589098786860908925060208203915061164c565b5050806104a0525050610fa051925060008283610fa43560405109820890508283610f643560605109820890508283610f843560805109820890508284820990508283610f443560405109820890508283610f043560605109820890508283610f243560805109820890508284820990508283610ee43560405109820890508283610ea43560605109820890508283610ec43560805109820890508284820990508283610e843560405109820890508283610e443560605109820890508283610e64356080510982089050826104405182099050806104c05250610fa0519250600082836114643560a051098208905082836114843560c051098208905082848209905082836113c43560a051098208905082836113e43560c051098208905082848209905082836113243560a051098208905082836113443560c051098208905082848209905082836112843560a051098208905082836112a43560c051098208905082848209905082836111e43560a051098208905082836112043560c051098208905082848209905082836111443560a051098208905082836111643560c051098208905082848209905082836110a43560a051098208905082836110c43560c051098208905082848209905082836110043560a051098208905082836110243560c05109820890508284820990508283610fc43560a05109820890508283610fe43560c0510982089050826104605182099050806104e05250610fa0519250600082836114c43560e051098208905082836114a43561010051098208905082848209905082836114243560e051098208905082836114043561010051098208905082848209905082836113843560e051098208905082836113643561010051098208905082848209905082836112e43560e051098208905082836112c43561010051098208905082848209905082836112443560e051098208905082836112243561010051098208905082848209905082836111a43560e051098208905082836111843561010051098208905082848209905082836111043560e051098208905082836110e43561010051098208905082848209905082836110643560e0510982089050828361104435610100510982089050826104805182096105005250602051610520526040516060519093508290840892508160805184086105405260a05160c051909350829084086105605260e0516101005190935082908408610580526000925060806105205b81851015611a145780518552602094850194016119fc565b5050611a248260806000846100c4565b90508161050051606051099250604060806104e05b81831015611a625784610fc051870995508485825185510987089550601f199283019201611a39565b505050826111a052610fc0519250610a8435600052610aa435602052611a8b610fa051826101a2565b9050611a9e611180516111605183610182565b9050610ec0610c005b81811015611adb57611abc610fa051846101a2565b9250611ace6020830151835185610182565b9250604082039150611aa7565b5050611aea610fa051826101a2565b9050611afd610724356107043583610182565b9050611b0c610fa051826101a2565b9050611b1f6106a4356106843583610182565b9050611b2e610fa051826101a2565b9050611b41610624356106043583610182565b9050611b50610fa051826101a2565b9050611b636105a4356105843583610182565b9050611b72610fa051826101a2565b9050611b85610524356105043583610182565b9050611b94610fa051826101a2565b9050611ba76104a4356104843583610182565b9050611bb6610fa051826101a2565b9050611bc9610424356104043583610182565b9050611bd8610fa051826101a2565b9050611beb6103a4356103843583610182565b9050611bfa610fa051826101a2565b9050611c0d610124356101043583610182565b90506103046102045b81811015611c4a57611c2b610fa051846101a2565b9250611c3d6020830135833585610182565b9250604082039150611c16565b5050611c59610fa051826101a2565b9050611c6a60e43560c43583610182565b90506102046101045b81811015611ca757611c88610fa051846101a2565b9250611c9a6020830135833585610182565b9250604082039150611c73565b5050610804356080526108243560a0526107c46107045b81811015611cf257611cd3610fa051846101dc565b9250611ce560208301358335856101bd565b9250604082039150611cbe565b5050611d0482610440518509826101dc565b9050611d1560a05160805183610182565b905081610fc05184099250610a4435608052610a643560a052610a046108045b81811015611d6957611d4a610fa051846101dc565b9250611d5c60208301358335856101bd565b9250604082039150611d35565b5050611d7b82610460518509826101dc565b9050611d8c60a05160805183610182565b905081610fc051840992506106c4356080526106e43560a052611db2610fa051826101dc565b9050611dc56106643561064435836101bd565b9050611dd4610fa051826101dc565b9050611de76105e4356105c435836101bd565b9050611df6610fa051826101dc565b9050611e096105643561054435836101bd565b9050611e18610fa051826101dc565b9050611e2b6104e4356104c435836101bd565b9050611e3a610fa051826101dc565b9050611e4d6104643561044435836101bd565b9050611e5c610fa051826101dc565b9050611e6f6103e4356103c435836101bd565b9050611e7e610fa051826101dc565b9050611e916103643561034435836101bd565b9050611ea382610480518509826101dc565b9050611eb460a05160805183610182565b9050610b0051608052610b205160a052611ed36111a0518303826101dc565b9050611ee460a05160805183610182565b9050611504356080526115243560a052611f03610400518303826101dc565b9050611f1460a05160805183610182565b9050611544356080526115643560a052611f31610fe051826101dc565b9050611f4260a05160805183610182565b90506000516111c0526020516111e05261154435611200526115643561122052610a80511561201657611000516000526110205160205261104051604052611060516060526111c0516080526111e05160a0526112005160c0526112205160e05281610100600020069250611fb783826101a2565b9050611fca6111e0516111c05183610182565b90506000516111c0526020516111e0526110405160005261106051602052611ff283826101a2565b9050612005611220516112005183610182565b905060005161120052602051611220525b61202f61122051611200516111e0516111c051856101f7565b90508061203b57600080fd5b505050600160005260206000f35b60008083601f84011261205b57600080fd5b50813567ffffffffffffffff81111561207357600080fd5b6020830191508360208260051b850101111561208e57600080fd5b9250929050565b6000806000806000606086880312156120ad57600080fd5b85356001600160a01b03811681146120c457600080fd5b9450602086013567ffffffffffffffff808211156120e157600080fd5b818801915088601f8301126120f557600080fd5b81358181111561210457600080fd5b89602082850101111561211657600080fd5b60208301965080955050604088013591508082111561213457600080fd5b5061214188828901612049565b96999598509396509294939250505056fea26469706673582212207d498e65ee4d1c3d84daedd16e27aed87fc9bc1ed4c7312a470b7cee2bb7fe7b64736f6c63430008150033","linkReferences":{}},"methodIdentifiers":{"verifyProof(address,bytes,uint256[])":"af83a18d"},"id":28}