{"abi":[{"type":"function","name":"verifyProof","inputs":[{"name":"vk","type":"address","internalType":"address"},{"name":"proof","type":"bytes","internalType":"bytes"},{"name":"values","type":"uint256[]","internalType":"uint256[]"}],"outputs":[{"name":"","type":"bool","internalType":"bool"}],"stateMutability":"nonpayable"}],"bytecode":{"object":"0x608060405234801561001057600080fd5b5061040d806100206000396000f3fe608060405234801561001057600080fd5b506004361061002b5760003560e01c8063af83a18d14610030575b600080fd5b61004361003e36600461031a565b610057565b604051901515815260200160405180910390f35b6000610135565b6020820135838110833585811084169190911691856003818085800985090886828309148316925050509392505050565b8160c0528260e05260006040608080608060065afa9091169392505050565b8160c0526000604060806060608060075afa90911692915050565b81600052826020526102c0516040526102e051606052610300516080526103205160a0528360c0528460e0526103405161010052610360516101205261038051610140526103a05161016052600060206000610180600060085afa600051921690911695945050505050565b7f30644e72e131a029b85045b68181585d97816a916871ca8d3c208c16d87cfd477f30644e72e131a029b85045b68181585d2833e84879b9709143e1f593f00000016001602060406102208b3c6101406101606102808b3c6064356080810660001482169150816101c15773092dcecc2d8d2c840e0e4dedecc40d8cadccee8d60631b60005260206000fd5b6020816064010180356020810283046004148416935083610206577f4e756d626572206f66206576616c756174696f6e206d69736d6174636800000060005260206000fd5b60005b818110156102c057602081026002810260208201850135915087610220518309610280516080526102a05160a0528803915061024582886100ae565b87169650806002870460840101915061025f89838961005e565b96506020820135913561027383828a61008f565b6080516102405260a05161026052975050608401905061029488828861005e565b95508035602082013591506102b2828261026051610240518b6100c9565b909616955050600101610209565b505050508060005260206000f35b60008083601f8401126102e057600080fd5b50813567ffffffffffffffff8111156102f857600080fd5b6020830191508360208260051b850101111561031357600080fd5b9250929050565b60008060008060006060868803121561033257600080fd5b85356001600160a01b038116811461034957600080fd5b9450602086013567ffffffffffffffff8082111561036657600080fd5b818801915088601f83011261037a57600080fd5b81358181111561038957600080fd5b89602082850101111561039b57600080fd5b6020830196508095505060408801359150808211156103b957600080fd5b506103c6888289016102ce565b96999598509396509294939250505056fea26469706673582212204424481544cf624747213df000bb39931a591edf0d58b5a3d93effb542cad61664736f6c63430008150033","linkReferences":{}},"methodIdentifiers":{"verifyProof(address,bytes,uint256[])":"af83a18d"},"id":26}